:03000000021DE3FB
:0C1DE300787FE4F6D8FD758156021E2AB8
:10097E00B0E5D7D3A3BA53544338472D4E616E6FAB
:10098E000D0A00B3CCD0F2A3BA53544338472D44CA
:10099E00656D6F5F41300D0A00D7F7D5DFA3BAD66C
:1009AE00DCE7F90D0A00CAB1BCE4A3BA3232303228
:1009BE00322F352F32352032313A32350D0A0D0AAB
:1009CE0000CDE2D6D0B6CF494E5430BBBDD0D10DFE
:1009DE000A0080E0F8FCFEFEFFFFFFFFFFFFFFFFB7
:1009EE00FFFFFFFFFF1F0F07C7C3C37F1F0F07C701
:1009FE00C7070F1FFFFFFFFFFFFFFFFFC7C7C7C7D9
:100A0E00C7C7C787070707C7C7C7C7C7C7C7FFFF78
:100A1E00FFFFFFFFFFFFFFFFFFFFFFFFFEFEFCF8E4
:100A2E00E080FFFFFFFFFFFFFFFFFFFFFFFFFFFF66
:100A3E00FFFFFFFFFFFCF8F0F0F1F0F0F8FCFFF124
:100A4E00F030383CFFFFFFFFFFFFFFFF7F3F3F3FD0
:100A5E003F3F3F200000003F3F3F3F3F3F7FFFFFB4
:100A6E00FFFFFFFFFFFFFFFFFFFFFFFFFFFFFFFF88
:100A7E00FFFFFFFFFFFFFFFFFFFFFFFFFFFFFFFF78
:100A8E00FFFFFFFFFFF1F1F1F1F1F1F1F1F1F1F102
:100A9E00F1808080FFFFFFFFFFFFFFFFFE7C3C3CED
:100AAE001C1C1C1C1C1C3C3C7CFCFCFCFCFEFFFFB0
:100ABE00FFFFFFFFFFFFFFFFFFFFFFFFFFFFFFFF38
:100ACE00FFFFFFFFFFFFFFFFFFFFFFFFFFFFFFFF28
:100ADE00FFFFFFFFFF0F070361717171F1F171717C
:100AEE0061030307FFFFFFFFFFFFFFFF030000008F
:100AFE00FE000000001E0080C0F3FFFFFFFFFFFF9F
:100B0E00FFFFFFFFFFFFFFFFFFFFFFFFFFFFFFFFE7
:100B1E00FFFFFFFFFFFFFFFFFFFFFFFFFFFFFFFFD7
:100B2E00FFFFFFFFFF3F1E0C8C8888080F1F0888F1
:100B3E00880C1C3EFFFFFFFFFFFFFFFF8F8E8E8E88
:100B4E008F8E8E8E8E8F8F8F8F8F8F8F8F8FFFFFCB
:100B5E00FFFFFFFFFFFFFFFFFFFFFFFFFFFFFFFF97
:100B6E00FFFFFFFFFFFFFFFFFFFFFFFFFFFFFFFF87
:100B7E00FFFFFFFFFFF8F0E06343436160706063C7
:100B8E0063E0F0F8FFFFFFFFFFFFFFFFE7C3C3C304
:100B9E00C3C3C3C3C3C3C3C3C3C3C3C3C3E7FFFF7B
:100BAE00FFFFFFFFFFFFFFFFFFFFFFFFFFFFFFFF47
:100BBE00FFFFFFFFFFFFFFFFFFFFFFFFFFFFFFFF37
:100BCE00FFFFFFFFFF03010018180C04042C1C1874
:100BDE0018000081FFFFFFFFFFFFFFFF1F070381CC
:100BEE00E1F1F1F1E1C103070F3FFFFFFFFFFFFF4F
:100BFE00FFFFFFFFFFFFFFFFFFFFFFFFFFFFFFFFF7
:100C0E00FFFFFFFFFFFFFFFFFFFFFFFFFFFFFFFFE6
:100C1E00FFFFFFFFFFFFFEFEFEFEFEFEFEFFFEFEDF
:100C2E00FFFFFFFFFFFFFFFFFFFFFFFFFCF0E0E016
:100C3E00C3C3C7C7C3C1E0F0F8FFFFFFFFFFFFFF4D
:100C4E00FFFFFFFFFFFFFFFFFFFFFFFFFFFFFFFFA6
:100C5E00FFFFFFFFFFFFFFFFFFFFFF000000000091
:100C6E0000000000000000F8F818F8F8F8F800008E
:100C7E0000000000F8F8F818181818181838F8F8C6
:100C8E000000000000000000000000000000000056
:100C9E00000000000000000000FFFFFFFFFFFFFF4D
:100CAE00FFFFFFFFFFFFFFFFFFFFFF000000000041
:100CBE0000000000003878797B4B4D4D0301000099
:100CCE0000000000030F1F9CB8B83838381E1F07ED
:100CDE000000000000000000000000000000000006
:100CEE00000000000000000000FFFFFFFFFFFFFFFD
:100CFE00FFFFFFFFFFFFFFFFFFFFFF0000000000F1
:100D0E0000000000000000E6E6C68600E0E00000FD
:100D1E00000000007C7F7F7FFFFF737F3E0000009E
:100D2E0000000000000000000000000000000000B5
:100D3E00000000000000000000FFFFFFFFFFFFFFAC
:100D4E00FFFFFFFFFFFFFFFFFFFFFF0000000000A0
:100D5E0000000000000000B7B7B0B1F33737000055
:100D6E0000000000C6E6E6E6E6C6FEFEFE00000057
:100D7E000000000000000000000000000000000065
:100D8E00000000000000000000FFFFFFFFFFFFFF5C
:100D9E00FFFFFFFFFFFFFFFFFFFFFF000000000050
:100DAE00000000000000003D7D656D7C100000001D
:100DBE00000000001C9CDCDCDCDCDF8F0700000088
:100DCE0000A0A0F8F83E181E1E181E181C1E183E75
:100DDE00FCF8B0A00000000000FFFFFFFFFFFFFFC8
:100DEE00FFFFFFFFFFFFFFFFFFFFFF000000000000
:100DFE00000000000000009EDFDBDBDBC080000097
:100E0E00000000001F3F7B716161733F1F000000F7
:100E1E0000B4B4FFFF80000000000000000000805E
:100E2E00FFFFB5B40000000000FFFFFFFFFFFFFF54
:100E3E00FFFFFFFFFFFFFFFFFFFFFFF8E0C0800097
:100E4E0000000000000000DFDFD8D8D89DCF0000E2
:100E5E000000000000000000000000000000000084
:100E6E0000000003030F030F0F030F03030F030F05
:100E7E00030300000080C0E0FCFFFFFFFFFFFFFF49
:100E8E00FFFF010F1F3F7F7FFFFFFFFFFFFFFFFFF2
:100E9E00FEFEFEFCFCFCFCFCFCFCFCFCFCFCFCFC7E
:100EAE00FCFCFCFCFCFCFCFCFCFCFCFCFCFCFCFC74
:100EBE00FCFCFCFCFCFCFCFCFCFCFCFCFCFCFCFC64
:100ECE00FCFEFEFEFFFFFFFFFFFFFFFF7F7F3F1FCA
:020EDE000F0102
:06001600C109021D0000FB
:101FF0001220D2C2B7121BE412245712222212213D
:102000002FE4FF1221861222E4750B80750CFF75F8
:102010000D09750EE07B50E4FDFF122066D2903072
:10202000092FC2097B017D017F01121CB57BFF7A5C
:1020300009797E120F427BFF7A097991120F427B58
:10204000FF7A0979A7120F427BFF7A0979B4120F40
:1020500042E51FB401C9E4F51F7BFF7A0979CF126D
:062060000F42B29080B9AE
:10245700758901758A18758CFCC28DD2AFD2A9D245
:022467008C22C5
:03000B000222BA14
:0422BA00C0E0C0D0F0
:1022BE00758A18758CFC051EE51E7002051DC394EB
:1022CE00E8E51D648094834008751D00751E00D2DC
:0122DE0009F6
:0522DF00D0D0D0E03278
:10237900120046120046120046120046120046128A
:0E2389000046120046120046120046020046B0
:080046007F757EB8DEFEDFFCD1
:01004E00228F
:10155F00EFD3940740037F01221217B3FED39403F6
:10156F0040037F0222EF7041EE700B9000011217C3
:10157F00CCF4529352941217B3B4010B9000011292
:10158F0017CC4293F452941217B3FEB4020A900090
:10159F00011217CC42934294EEB4030D9000011246
:1015AF0017CCFEF45293EE4294EF6401704312177E
:1015BF00B3FE700B9000011217CCF452915292EEC1
:1015CF00B4010B9000011217CC4291F452921217F2
:1015DF00B3B4020A9000011217CC42914292121733
:1015EF00B3B4030D9000011217CCFEF45291EE42EA
:1015FF0092EF640270431217B3FE700B900001124A
:10160F0017CCF452955296EEB4010B9000011217BD
:10161F00CC4295F452961217B3B4020A90000112FD
:10162F0017CC429542961217B3B4030D90000112D6
:10163F0017CCFEF45295EE4296EF640370431217E7
:10164F00B3FE700B9000011217CCF452B152B2EEF0
:10165F00B4010B9000011217CC42B1F452B2121721
:10166F00B3B4020A9000011217CC42B142B2121762
:10167F00B3B4030D9000011217CCFEF452B1EE4239
:10168F00B2EF640470431217B3FE700B9000011297
:10169F0017CCF452B352B4EEB4010B9000011217F1
:1016AF00CC42B3F452B41217B3B4020A9000011231
:1016BF0017CC42B342B41217B3B4030D900001120A
:1016CF0017CCFEF452B3EE42B4EF64057043121719
:1016DF00B3FE700B9000011217CCF452C952CAEE30
:1016EF00B4010B9000011217CC42C9F452CA121761
:1016FF00B3B4020A9000011217CC42C942CA1217A2
:10170F00B3B4030D9000011217CCFEF452C9EE4290
:10171F00CAEF640670431217B3FE700B90000112EC
:10172F0017CCF452CB52CCEEB4010B900001121730
:10173F00CC42CBF452CC1217B3B4020A9000011270
:10174F0017CC42CB42CC1217B3B4030D9000011249
:10175F0017CCFEF452CBEE42CCEF64077043121756
:10176F00B3FF700B9000011217CCF452E152E2EF6D
:10177F00B4010B9000011217CC42E1F452E21217A0
:10178F00B3B4020A9000011217CC42E142E21217E1
:10179F00B3B4030D9000011217CCFFF452E1EF42E6
:0417AF00E27F0022B3
:1020D200750901E4F508FB7A0079087F0312155FA0
:1020E2007509027508037F0312155F750904E4F58B
:1020F200087F0312155F750908E4F5087F031215BE
:102102005F7509807508037F0312155F75092075D5
:1021120008037F0112155F7509107508037F01120C
:0D212200155F7509017508037F0102155F47
:100086000000000000000000002F00000000070034
:10009600070000147F147F1400242A7F2A120062AE
:1000A600640813230036495522500000050300005A
:1000B60000001C224100000041221C000014083EE2
:1000C60008140008083E0808000000A060000008A8
:1000D60008080808000060600000002010080402FC
:1000E600003E5149453E0000427F400000426151BA
:1000F6004946002141454B31001814127F10002754
:1001060045454539003C4A49493000017109050316
:1001160000364949493600064949291E0000363647
:1001260000000000563600000008142241000014AA
:100136001414141400004122140800020151090687
:1001460000324959513E007C1211127C007F494908
:100156004936003E41414122007F4141221C007F39
:1001660049494941007F09090901003E4149497A47
:10017600007F0808087F0000417F410000204041C1
:100186003F01007F08142241007F40404040007F2D
:10019600020C027F007F0408107F003E4141413E71
:1001A600007F09090906003E4151215E007F0919B9
:1001B60029460046494949310001017F0101003FB6
:1001C6004040403F001F2040201F003F4038403F36
:1001D600006314081463000708700807006151499A
:1001E600454300007F41410000552A552A5500002D
:1001F60041417F00000402010204004040404040AB
:10020600000001020400002054545478007F484442
:10021600443800384444442000384444487F003879
:100226005454541800087E0901020018A4A4A47CA2
:10023600007F080404780000447D4000004080846C
:100246007D00007F102844000000417F4000007CB4
:1002560004180478007C08040478003844444438C0
:1002660000FC242424180018242418FC007C08040C
:10027600040800485454542000043F444020003CE5
:100286004040207C001C2040201C003C4030403C6C
:10029600004428102844001CA0A0A07C00446454FC
:1002A6004C44141414141414000000000000000040
:1002B6000000000000000000000000F80000000040
:1002C600000000333000000000100C06100C060081
:1002D600000000000000000040C07840C0784000E8
:1002E600043F04043F040400007088FC083000004A
:1002F600001820FF211E0000F008F000E0180000A2
:1003060000211C031E211E0000F00888700000005A
:100316001E2123241927211010160E0000000000AC
:100326000000000000000000000000E018040200C9
:10033600000000071820400000020418E00000003A
:100346000040201807000000404080F08040400038
:100356000202010F01020200000000F0000000008E
:100366000101011F01010100000000000000000062
:1003760080B07000000000000000000000000000D7
:100386000001010101010101000000000000000060
:1003960000303000000000000000000080601804FB
:1003A600006018060100000000E010080810E000D8
:1003B600000F102020100F00001010F800000000A1
:1003C6000020203F202000000070080808887000E8
:1003D6000030282422213000003008888848300068
:1003E6000018202020110E000000C02010F8000088
:1003F60000070424243F240000F808888808080021
:100406000019212020110E0000E010888818000035
:10041600000F112020110E0000380808C838080007
:100426000000003F00000000007088080888700087
:10043600001C222121221C0000E010080810E00008
:100446000000312222110F00000000C0C000000091
:1004560000000030300000000000008000000000B6
:1004660000008060000000000000804020100800AE
:100476000001020408102000404040404040400077
:100486000404040404040400000810204080000052
:100496000020100804020100007048080808F00057
:1004A6000000003036010000C030C828E810E00027
:1004B6000718272423140B000000C038E0000000B2
:1004C600203C23020227382008F88888887000001C
:1004D600203F202020110E00C030080808083800F0
:1004E600071820202010080008F808080810E00067
:1004F600203F202020100F0008F88888E808100008
:10050600203F20202320180008F88888E8081000DB
:10051600203F200003000000C03008080838000013
:1005260007182020221E020008F808000008F80814
:10053600203F210101213F20000808F8080800009B
:100546000020203F2020000000000808F8080800CE
:10055600C08080807F00000008F888C02818080046
:10056600203F20012638200008F80800000000007F
:10057600203F20202020300008F8F800F8F8080076
:10058600203F003F003F200008F830C00008F80870
:10059600203F200007183F00E01008080810E00080
:1005A6000F10202020100F0008F808080808F00097
:1005B600203F210101010000E01008080810E000BA
:1005C6000F18242438504F0008F88888888870004F
:1005D600203F2000030C30200070880808083800EF
:1005E6000038202121221C00180808F808081800E5
:1005F6000000203F2000000008F808000008F80866
:10060600001F202020201F000878880000C8380816
:10061600000007380E010000F80800F80008F8008E
:10062600033C0700073C0300081868808068180828
:1006360020302C03032C30200838C800C8380800A6
:100646000000203F2000000010080808C8380800F5
:100656002038262120201800000000FE0202020099
:100666000000007F40404000000C30C00000000049
:10067600000000010638C00000020202FE00000071
:10068600004040407F000000000004020202040017
:100696000000000000000000000000000000000054
:1006A600808080808080808000020204000000003C
:1006B6000000000000000000000080808080000034
:1006C6000019242222223F2008F800808000000022
:1006D600003F112020110E000000008080800000E5
:1006E600000E112020201100000000808088F800F4
:1006F600000E112020103F20000080808080000026
:10070600001F222222221300008080F08888881889
:100716000020203F20200000000080808080800094
:10072600006B94949493600008F800808080000029
:10073600203F210000203F20008098980000000004
:100746000020203F20200000000000809898000034
:1007560000C08080807F000008F800008080800054
:10076600203F24022D302000000808F80000000079
:100776000020203F20200000808080808080800034
:10078600203F20003F20003F8080008080800000C6
:10079600203F210000203F20000080808080000054
:1007A600001F202020201F00808000808000000085
:1007B60080FFA12020110E000000008080808000B4
:1007C600000E112020A0FF808080800080808000A5
:1007D60020203F21200001000000808080808000D2
:1007E6000033242424241900008080E08080000047
:1007F6000000001F20200000808000000080800094
:10080600001F202020103F208080800000808080F4
:1008160000010E3008060100808000800080808084
:100826000F300C030C300F000080800080808000A9
:100836000020312E0E3120008080800000808080D4
:1008460080818E7018060100008080808080800084
:100856000021302C2221300000000000807C0202A2
:1008660000000000003F404000000000FF000000C4
:1008760000000000FF0000000002027C8000000073
:100886000040403F0000000000060101020204048F
:1008960000000000000000000000F010101010FF23
:1008A60010101010F000000000000F04040404FFF4
:1008B600040404040F0000004040405F5555557580
:1008C6005555555F404040000040200F0949897941
:1008D6000909090F2040000000FE02424ACA4A4A9E
:1008E600CA4A4A4202FE000000FF40504C434040C4
:1008F6004F50505C40FF00000000F888888888FF51
:1009060088888888F800000000001F080808087F0B
:10091600888888889F80F00080828282828282E234
:10092600A2928A8682808000000000000040807FBC
:100936000000000000000000101010FF1090088852
:100946008888FF88888808000444827F0180804068
:10095600432C1028468180000010101010D030FF64
:1009660030D0121C1010000010080402010000FF15
:0809760000000102040810005A
:10239700D3EF9400EE940040147D657C18ED1D701A
:0D23A700011CED4C70F7EF1F70E61E80E387
:0123B4002206
:10241B00EF1FAA0670011E4A600BE4FDEDC3947B0F
:05242B0050EE0D80F7EA
:012430002289
:1023D000EF4E60157D087C07ED1DAA0470011C4AB4
:0923E00070F6EF1F70EA1E80E7A1
:0123E90022D1
:1023EA008F55E5557008FDFC7FA6FE122368E5555A
:0923FA00B401057FA7122364223F
:102186008F08E5087023FDFC7FD3FE122368E4FD6B
:10219600FC7F68FE122368E4FDFC7FC0FE12236804
:1021A600E4FDFC7FA0FE122368E508B40124E4FDEB
:1021B600FC7FD3FE122368E4FDFC7F18FE12236821
:1021C600E4FDFC7FC8FE122368E4FDFC7FA1FE123D
:0321D60023682259
:0924A600D295D294C294C2952291
:0724BF00D295C294D29422D1
:0B247A00122315122485AF0412231555
:05248500D295C2952272
:07230E00AC071224A67F7842
:10231500C295E4FEAD07530580BD8004D2948002CA
:0E232500C294EF25E0FFD295C2950EBE08E6E9
:012333002287
:0E248A0012230E122485E4FF12247A0224BFCE
:0E24980012230E1224857F4012247A0224BFE4
:10235700122368E4FDFCFFFE1223687F10E4FDFCF6
:01236700FE77
:10236800AB07AA06ED4C6003022498AF0312248A37
:012378002242
:10228E00A907ED24B0FFE433FEE4FDFC122368E958
:10229E0054F0C4540F7E004410FFE4FDFC1223687A
:0C22AE00E9540FFF7E00E4FDFC022368F1
:1023B500E4FDFC7F8DFE122368E4FDFC7F14FE1214
:0B23C5002368E4FDFC7FAFFE022368EC
:10246900E4FDFC7F8D12235EE4FDFC7FAEFE0223BA
:0124790068FA
:1022E400E4F9E924B0FFE433FEE4FDFC122357E4EF
:1022F400F5087D017C00E4FFFE1223680508E5086B
:09230400C3945040ED09B910D951
:01230D0022AD
:041B13008F328D334D
:101B1700E4F536E535C313FDF537E4F538F539E572
:101B270035B40808753A00753B068029E535131367
:101B370013541FFF7E00E5355407600590000180B0
:101B470003900000E5822FFFE5833EFE7C0012171D
:101B5700F98E3A8F3BEB24E0F536AD33AF321222E4
:101B67008EE4F538F539C3E539953BE538953A50B4
:101B77006BE537FD7C00AE38AF3912180BED4C70B2
:101B87000FE53564086009AD330533AF3212228E95
:101B9700E535B4081075F006E536A42486F582E528
:101BA700F034008013E535B4103275F010E536A433
:101BB70024AEF582E5F03402F583E5822539F58216
:101BC700E5833538F583E493FF7E007D017C0012C1
:0C1BD70023680539E539708E0538808AD6
:011BE30022DF
:042403008F56A90542
:102407007F017E00AD0119ED6009AD567C00121702
:03241700F980F158
:01241A00229F
:081E6F008F3C8D3D8A3E8B3F44
:101E7700E4F544F545E541B40803754402E4F54249
:101E8700E542C395405069C3E540954214FD7F0A7A
:101E9700122403AC3EAD3FCFCDCFCECCCE12180B24
:101EA7007C007D0A12180B8D43E5457025E540142B
:101EB700FFE542C39F501BE5437014E541C313255B
:101EC700448542F0A4253CFF8541357B2080187569
:101ED7004501E541C31325448542F0A4253CFFE5B0
:101EE700432430FB854135AD3D121B1305428090DD
:011EF70022C8
:0A21D9008F4E8D4F8B508A518952B2
:1021E300E4F554AB50AA51A9528554827583001269
:1021F30017CC602AAF5405548F827583001217CC15
:10220300FB855335AD4FAF4E121B13E553B4080492
:0E22130074068004E553C313254EF54E80C5B6
:01222100229A
:061D54008F468D478B480D
:101D5A00E549131313541FFF7E00E54954077C001D
:101D6A0060047D0180027D00ED2FFFEC3EFEAD494F
:101D7A007C001217F98E4C8F4DE4F54AF54BC3E5FA
:101D8A004B954DE54A954C504FE549FD7C00AE4ACE
:101D9A00AF4B12180BED4C7009AD470547AF461211
:101DAA00228EE549B41031E548C43354E0249EF547
:101DBA0082E43408F583E582254BF582E583354ACA
:101DCA00F583E493FF7E007D017C00122368054BB6
:081DDA00E54B70AA054A80A642
:011DE20022DE
:062066008F088D098B0AB2
:10206C00E4F50FF510E50B131313541FFFE50B5498
:10207C000760047E0180027E00EF2EF50BE4F51163
:10208C00E511C3950B503EE5112509FDAF08122251
:10209C008EE4F512E512C3950A5026AB0CAA0DA9D5
:1020AC000E0510E510AE0F7002050F14F5828E832D
:1020BC001217CCFF7E007D017C0012236805128074
:0520CC00D3051180BBEB
:0120D10022EC
:101BE400E4FDFC7FAEFE122357E4FDFC7F20FE12D1
:101BF4002368E4FDFC7F81FE122368E4FDFC7F6F13
:101C0400FE122368E4FDFC7FA0FE122368E4FDFCC1
:101C14007FC0FE122368E4FDFC7FA4FE122368E467
:101C2400FDFC7FA6FE122368E4FDFC7FD5FE122393
:101C340068E4FDFC7F91FE122368E4FDFC7FD9FE7D
:101C4400122368E4FDFC7F22FE122368E4FDFC7F7E
:101C5400DBFE122368E4FDFC7F3FFE122368E4FDF3
:101C6400FC7FA8FE122368E4FDFC7F4FFE1223686C
:101C7400E4FDFC7FD3FE122368E4FDFC7F68FE12C2
:101C84002368E4FDFC7FDCFE122368E4FDFCFFFE18
:101C9400122368E4FDFC7FADFE122368E4FDFC7FA3
:101CA4008AFE1223681222E4E4FDFC7FAFFE0223C5
:011CB40068C7
:04225A00A2E6920066
:10225E00300016D2B70000000000000000000000A1
:10226E00000000000000C2B722D2B700000000C27A
:10227E00B700000000000000000000000000002277
:0724AF00E4FF000FBF55FB25
:0124B6002203
:101CB500ED33920012225EED12225AA2E592001235
:101CC500225EA2E4920012225EA2E3920012225E3C
:101CD500A2E2920012225EA2E1920012225E13920B
:101CE5000012225EEF33920012225EEF12225AA2F8
:101CF500E5920012225EA2E4920012225EA2E39215
:101D05000012225EA2E2920012225EA2E19200126D
:101D1500225E13920012225EEB33920012225EEBDA
:101D250012225AA2E5920012225EA2E49200122229
:101D35005EA2E3920012225EA2E2920012225EA24D
:0F1D4500E1920012225E13920012225E0224AF7E
:10002600535443382055415254312054657374203B
:0D00360050726F6772616D6D65210D0A00DB
:03001C00012200BE
:08123C008F148B158A16891727
:10124400E5146401600302140B752301F524F525EC
:10125400F526F527F528F529F51874002518F582E3
:10126400E43401F583E4F00518E518B480ECE4F502
:101274001874002518F582E43400F583E4F00518A9
:10128400E518B480ECAB15AA16A91790000A12173A
:10129400CCFED3940340037F0222EE700553B7EFD4
:1012A400C2BC90000A1217CCB4010553B7EFD2BCEC
:1012B40090000A1217CCFFB4020543B710C2BCEF6A
:1012C400B4030543B710D2BC1217B3D394C0400380
:1012D4007F02221217B3FFE598543F4FF598EF644D
:1012E400C06008EF644060030213A090000212196A
:1012F400527F007E307D2A7C0012189C8F1C8E1B2E
:101304008D1A8C19E4FFFE7D01FCAB1CAA1BA91AE3
:10131400A819C312192E40037F0222C3E4951CF5B9
:101324001CE4951BF51B7401951AF51AE49519F53F
:1013340019AB15AA16A9179000011217CCFB64016A
:10134400702CC28E538EFE5389BF5389CF438E4077
:10135400AF1CAE1BAD1AAC19780812193F8F8D85DE
:101364001C8BC2AB5389BF538FFDD28E8062EB645A
:10137400027026538EEF438E01538EF7438E04AFD3
:101384001CAE1BAD1AAC19780812193F8FD6851CF8
:10139400D753AFFB438E1080377F0222AB15AA16BA
:1013A400A9171217B3FF70139000081217CCB401D9
:1013B40005438E20801A538EDF8015EFB480119080
:1013C40000081217CCB40105438780800353877F3C
:1013D400AB15AA16A9179000091217CCB40104D2B0
:1013E400AC8002C2AC9000071217CCB40104D29CAA
:1013F4008002C29C90000B1217CC54C0FFE5A2548B
:101404003F4FF5A27F0022E5146402600302155CDD
:10141400752A02F52BF52CF52DF52EF52FF530F563
:101424001874802518F582E43401F583E4F0051876
:10143400E518B480ECE4F51874802518F582E434DA
:1014440000F583E4F00518E518B480ECAB15AA1692
:10145400A9171217B3FF64C06008EF644060030269
:10146400151E90000A1217CCFED3940340037F028A
:1014740022EE700653B6FE53B5FE90000A1217CC46
:10148400B4010653B6FE43B50190000A1217CCFF0F
:10149400B4020643B60153B5FEEFB4030643B601E6
:1014A40043B5011217B3B4C005439A808003539A1D
:1014B4007F9000021219527F007E307D2A7C001238
:1014C400189C8F1C8E1B8D1A8C19E4FFFE7D01FC69
:1014D400AB1CAA1BA91AA819C312192E40037F0218
:1014E40022C3E4951CF51CE4951BF51B7401951AA5
:1014F400F51AE49519F519538EEF538EF7438E04BC
:10150400AF1CAE1BAD1AAC19780812193F8FD685E3
:101514001CD753AFFB438E1080037F0222AB15AA66
:1015240016A9179000091217CCB4010543AF018026
:101534000353AFFE9000071217CCB40105439A1071
:101544008003539AEF90000B1217CC5401FFE5BAB5
:0A15540054FE4FF5BA7F00227F021B
:01155E00226A
:1023340074002525F582E43401F583EFF00525E5E5
:1023440025C394804003E4F525E526700575260130
:03235400D29922F9
:102431001217B3FF600C122334740129F9E43AFA3C
:0324410080EE2208
:03002300021EF8C2
:0F1EF800C0E0C083C082C0D075D000C006C00754
:101F0700309838C298E5297032AF99E527C3948095
:101F17004003752700AE27052774002EF582E434A9
:101F270000F583E599F0752805BF7F0F0522E522A7
:101F3700D39409400675220043C760309927C29998
:101F4700E5246525601C74002524F582E43401F539
:101F570083E0F5990524E524C3948040087524009F
:051F6700800375260057
:0D1F6C00D007D006D0D0D082D083D0E03294
:10005E007480252CF582E43401F583EFF0052CE550
:10006E002CC394804003E4F52CE52D7006752D010C
:04007E00439A02227D
:102444001217B3FF600C12005E740129F9E43AFA22
:0324540080EE22F5
:03004300021F7920
:101F7900C0E0C083C082C0D075D000C007E59A30E8
:101F8900E02D539AFEE5307026E52EC39480400378
:101F9900752E00E59BB42403752E00AF2E052E7413
:101FA900802FF582E43400F583E59BF0752F05E574
:101FB9009A30E128539AFDE52B652C601C74802525
:101FC9002BF582E43401F583E0F59B052BE52BC362
:101FD90094804008752B008003752D00D007D0D060
:071FE900D082D083D0E0326A
:0824B7008F993099FDC29922B2
:0624C600AE071224B7224C
:10212F00750840750901750D00750CC2750B0175A9
:10213F000A00750F01E4F510751101F512F513FB87
:10214F007A0079087F0112123C750840750D0075F1
:10215F000CC2750B01750A00750F0175110175120F
:10216F0001E4F513FB7A0079087F0212123C7BFF22
:07217F007A007926022431E9
:03000300020006F2
:04000600751F01322F
:0300130002000EDA
:04000E00751F023226
:0300530002004F59
:04004F00751F0332E4
:03005B000200564A
:04005600751F0432DC
:030083000224CC88
:0424CC00751F053241
:101A0000EFD3940440037F0122EF705DC289900000
:101A1000021217CCB40104D2A88002C2A89000011F
:101A20001217CCFED3940340037F0222EE700553BD
:101A3000B7FEC2B89000011217CCB4010553B7FE2F
:101A4000D2B89000011217CCFEB4020543B701C210
:101A5000B8EEB4030543B701D2B81217B3B401040A
:101A6000D2888002C2887F0022EF6401705DC28B41
:101A70009000021217CCB40104D2AA8002C2AA902C
:101A800000011217CCFED3940340037F0222EE70B4
:101A90000553B7FBC2BA9000011217CCB40105532D
:101AA000B7FBD2BA9000011217CCFEB4020543B7BF
:101AB00004C2BAEEB4030543B704D2BA1217B3B4E2
:101AC0000104D28A8002C28A7F0022BF02149000E1
:101AD000021217CCB40105438F108003538FEF7FA0
:101AE0000022BF03149000021217CCB40105438FEB
:101AF000208003538FDF7F0022BF04149000021266
:101B000017CCB40105438F408003538FBF7F002261
:031B10007F02222F
:10222200750A01750801E4F509FB7A007908FF12C5
:102232001A00750A01750801E4F5097F01121A00F6
:10224200750A017F02121A00750A017F03121A0031
:08225200750A017F04021A0065
:101DEF00021FF0E493A3F8E493A34003F68001F2FB
:101DFF0008DFF48029E493A3F85407240CC8C333F5
:101E0F00C4540F4420C8834004F456800146F6DFC3
:101E1F00E4800B0102040810204080900016E47E3D
:101E2F00019360BCA3FF543F30E509541FFEE493B8
:101E3F00A360010ECF54C025E060A840B8E493A37F
:101E4F00FAE493A3F8E493A3C8C582C8CAC583CAAA
:101E5F00F0A3C8C582C8CAC583CADFE9DEE780BE62
:01001F0000E0
:1017B300BB010689828A83E0225002E722BBFE0234
:0917C300E32289828A83E4932267
:1017CC00BB010CE58229F582E5833AF583E02250D2
:1017DC0006E92582F8E622BBFE06E92582F8E2221C
:0D17EC00E58229F582E5833AF583E4932236
:1017F900EF8DF0A4A8F0CF8CF0A428CE8DF0A42E04
:02180900FE22BD
:10180B00BC000BBE0029EF8DF084FFADF022E4CCC1
:10181B00F875F008EF2FFFEE33FEEC33FCEE9DEC8A
:10182B00984005FCEE9DFE0FD5F0E9E4CEFD22EDD0
:10183B00F8F5F0EE8420D21CFEADF075F008EF2F1A
:10184B00FFED33FD4007985006D5F0F222C398FD0B
:05185B000FD5F0EA22A8
:1018600075F008758200EF2FFFEE33FECD33CDCC3F
:1018700033CCC58233C5829BED9AEC99E5829840C2
:101880000CF582EE9BFEED9AFDEC99FC0FD5F0D69F
:10189000E4CEFBE4CDFAE4CCF9A88222B800C1B9C9
:1018A0000059BA002DEC8BF084CFCECDFCE5F0CB07
:1018B000F97818EF2FFFEE33FEED33FDEC33FCEB40
:1018C00033FB10D703994004EB99FB0FD8E5E4F9FB
:1018D000FA227818EF2FFFEE33FEED33FDEC33FCE8
:1018E000C933C910D7059BE99A4007EC9BFCE99ADC
:1018F000F90FD8E0E4C9FAE4CCFB2275F010EF2F21
:10190000FFEE33FEED33FDCC33CCC833C810D70720
:101910009BEC9AE899400AED9BFDEC9AFCE899F85B
:0E1920000FD5F0DAE4CDFBE4CCFAE4C8F922EE
:10192E00EB9FF5F0EA9E42F0E99D42F0E89C45F00F
:01193E002286
:10193F00E8600FECC313FCED13FDEE13FEEF13FF86
:03194F00D8F122AA
:10195200BB010DE58229F582E5833AF5830219A1DF
:101962005007E92582F8021994BBFE07E92582F89F
:101972000219ADE58229F582E5833AF5830219BAA7
:100EE000E517240BF8E60517227808300702780B7F
:100EF000E475F0011219CA0217B32000EB7F2ED25D
:100F0000008018EF540F2490D43440D4FF30040BE9
:100F1000EF24BFB41A0050032461FFE518600215E6
:100F200018051BE51B7002051A30070D7808E475DB
:100F3000F0011219CAEF0219820224C67403D20703
:100F40008003E4C207F5178B088A09890AE4F518BB
:100F5000F51AF51BE51860077F20120F1B80F57549
:100F600019FFC201C200C202C203C205C206C20802
:100F7000120EE9FF700D3007057F00120F2CAF1B1A
:100F8000AE1A22B4255FC2D5C204120EE9FF24D0E6
:100F9000B40A00501A75F00A781830D50508B6FF63
:100FA0000106C6A426F620D5047002D20380D924F7
:100FB000CFB41A00EF5004C2E5D20402112CD201C2
:100FC00080C6D20080C0D20280BCD2D580BAD20501
:100FD00080B47F20120F1B2002077401B518004057
:100FE000F1120EE0FF120F1B020F54D208D206803E
:100FF00095120EE0FB120EE0FA120EE0F94A4B7069
:101000000679FD7A117BFF20022EE518602A7E000A
:101010008E827583001217CC60060EEE651970F093
:10102000C2D5EBC0E0EAC0E0E9C0E0EE121173D037
:10103000E0F9D0E0FAD0E0FB1217B3FF60AAEBC0F2
:10104000E0EAC0E0E9C0E0120F1BD0E02401F9D0D3
:10105000E03400FAD0E0FBE5190460DCD519D98052
:10106000877BFF7A11796FD202809C791080027998
:1010700008C206C2088008D2D5790A8004790AC25B
:10108000D5E519047002F519E4FAFDFEFF120EE031
:10109000FC7B08200113120EE0FD7B1030000A12C9
:1010A0000EE0FE120EE0FF7B20EC3382D592D5508D
:1010B00013C3E43000069FFFE49EFEE42001039D7D
:1010C000FDE49CFCE4CBF8C201EC700CCFCECDCC9F
:1010D000E824F8F870F38017C3EF33FFEE33FEED2A
:1010E00033FDEC33FCEB33FB994002FB0FD8E9EB0B
:1010F000300105F8D0E0C448B201C0E00AEC4D4E22
:101100004F78207B0070C2EAB5190040BCC0E012E5
:101110001175D0F0D0E0200104C4C0E0C4B201C019
:10112000F0120F04D0F0D5F0EB020F541219DA0FC1
:10113000F153106B580FC24C0FBE42106F4F107717
:0F114000441077490FD743107D55106146106159
:10114F0045106147121D500FC62D0FCA2E0FED2BE4
:10115F000FCE230FEB2012062A0F864800000FE553
:10116F003F3F3F00790AA2D5200314300509B9107B
:10117F00020404B9080104A2D5200602500104207C
:10118F0002689202B518005034C0E07F2030031976
:10119F007F30A20272067205500F1211CCC202C22A
:1011AF0006C205C2087F30800F300503E9C0E01288
:1011BF000F1B300503D0E0F9D0E0B518CC30051780
:1011CF007F30B9100C120F1B7F583004077F7880C7
:1011DF0003B90803120F1B3002057F2D020F1B7F6F
:1011EF00202008F87F2B2006F322920280CF286E52
:1011FF00756C6C2900D201120EE03001F8C2017833
:10120F001830D50108F6020F862D50434958120E9B
:10121F00E02403B405004001E490121893120F0C60
:0D122F00743A120F0CD20375180402106BF4
:10198200BB010689828A83F0225002F722BBFE0144
:02199200F3223E
:0D199400E6FB08E6F908E6FA08E6CBF822C3
:0C19A100E0F8A3E0F9A3E0FAA3E0FB22C9
:0D19AD00E2FB08E2F908E2FA08E2CBF822BA
:1019BA00E493F8740193F9740293FA740393FB2283
:1019CA00FAE6FB0808E6F925F0F618E6CA3AF6221E
:1019DA00D083D082F8E4937012740193700DA3A39C
:1019EA0093F8740193F5828883E4737402936860B0
:0619FA00EFA3A3A380DFB0
:00000001FF
